:02000000B52B1E
:0E000600213083120313FD00FD0B07280800B4
:06001400000000000800DE
:10001A000F3083120313FC004730FD00FD0B132839
:0A002A00FC0B132800000000080082
:1000340083120313C61B2028861121288615461B0C
:100044002528061126280615C61A2A2886102B28C4
:100054008614461A2F28061030280614351834281A
:1000640006163528061286160A208612C6193C285A
:1000740086113D2886154619412806114228061581
:10008400C618462886104728861446184B2806109A
:100094004C280614351850280616512806128616C0
:1000A4000A208612351C58280D20592803200800E0
:0E00B4008312031334088A0033088200080008
:1000C2007328803083120313C3008628C030C30014
:1000D20086289430C3008628D430C3008628803016
:1000E200C3008628831203134308013A03196228C6
:1000F2004308023A031967284308033A03196A2896
:100102004308043A03196D2870284403F000430899
:10011200F0077008C30035147008C6001A203510A5
:0A0122004508C6001A203514080035
:10012C0083120313B801103038020318B3284008A7
:10013C00C300380AC40038084107F000420803180D
:10014C00013EF1007008B3007108B4005A208A1106
:0C015C000A12C5006120B80A99280800AA
:1001680083120313B601B7013708003C031DBE28EC
:100178003608113C031CE0280130C0008930C1005A
:100188000630C200962009140630FC003030FD000D
:10019800FD0BCC28FC0BCC28000009102F30FC00EC
:1001A800BF30FD00FD0BD628FC0BD6280000000050
:0A01B800B60A0319B70AB8280800B8
:1001C2008312031335103F08C6001A2035140800A5
:1001D20083120313AA01AB012B08003C031DF32871
:1001E2002A08143C031C15290130C0007830C100D4
:1001F2000630C200962009140330FC001230FD00C4
:10020200FD0B0129FC0B0129000009103230FC0012
:10021200DD30FD00FD0B0B29FC0B0B29000000005B
:0A022200AA0A0319AB0AED28080030
:10022C0083120313B901BA013A08003C031D2029BB
:10023C003908123C031C42290130C0006730C10050
:10024C000630C200962009140430FC00E430FD0096
:10025C00FD0B2E29FC0B2E29000009103130FC005F
:10026C000B30FD00FD0B3829FC0B38290000000079
:0A027C00B90A0319BA0A1A2908008A
:1002860083120313B201F03088000808F03A03190C
:10029600C829FE3088005B293130B2006B29323024
:1002A600B2006B293330B2006B294130B2006B29A2
:1002B6000808EE3A03194F290808DE3A03195229AD
:1002C6000808BE3A0319552908087E3A0319582921
:1002D600FD3088007A293430B2008A293530B200E0
:1002E6008A293630B2008A294230B2008A290808A3
:1002F600ED3A03196E290808DD3A03197129080831
:10030600BD3A0319742908087D3A03197729FB3089
:10031600880099293730B200A9293830B200A929B6
:100326003930B200A9294330B200A9290808EB3AAE
:1003360003198D290808DB3A031990290808BB3AE6
:100346000319932908087B3A03199629F730880080
:10035600B8292A30B200C8293030B200C829233063
:10036600B200C8294430B200C8290808E73A031980
:10037600AC290808D73A0319AF290808B73A031970
:10038600B2290808773A0319B529F0308800080819
:10039600F03A0319CF29CA298530FC007630FD00D2
:0C03A600FD0BD329FC0BD329000008003C
:1003B20083120313B201AC01AD014321303032028A
:1003C200031CF0293208393C031CF0293208BF0013
:1003D200E12030303202AC00AD01031CAD03320823
:1003E200233A031DF7290430A900F829DE29080061
:1003F200831203132908053A031D9A2A062A162195
:100402001E2AE9201E2AB4201E2A00302806031DB7
:100412000C2A013027060319002A00302806031D82
:10042200142A023027060319022A00302806031D67
:100432001C2A033027060319042A252A16213D2ADD
:10044200E9203D2AB4203D2A00302606031D2B2A2E
:100452000130250603191F2A00302606031D332A00
:10046200023025060319212A00302606031D3B2AE5
:10047200033025060319232A442A16215C2AE9207F
:100482005C2AB4205C2A00302F06031D4A2A013060
:100492002E0603193E2A00302F06031D522A02306F
:1004A2002E060319402A00302F06031D5A2A033054
:1004B2002E060319422A632A16217B2AE9207B2A67
:1004C200B4207B2A00302D06031D692A01302C0638
:1004D20003195D2A00302D06031D712A02302C06F5
:1004E20003195F2A00302D06031D792A03302C06DA
:1004F2000319612A822A16219A2AE9209A2AB4200B
:100502009A2A00303106031D882A01303006031969
:100512007C2A00303106031D902A0230300603196E
:100522007E2A00303106031D982A03303006031953
:04053200802A080013
:1005360083120313B201AE01AF0143213030320200
:10054600031CB22A3208393C031CB22A3208BF0007
:10055600E12030303202AE00AF01031CAF03320897
:10056600233A031DB92A0330A900BA2AA02A080093
:1005760083120313B201A501A601432130303202D2
:10058600031CD22A3208393C031CD22A3208BF0087
:10059600E12030303202A500A601031CA603320872
:1005A600233A031DD92A0230A900DA2AC02A0800F4
:1005B60083120313B201B001B1014321303032027C
:1005C600031CF22A3208393C031CF22A3208BF0007
:1005D600E12030303202B000B101031CB103320811
:1005E600233A031DF92A0530A900FA2AE02A080051
:1005F6005A208A110A128000840AB30A0319B40A1F
:08060600F003031DFB2A0800AC
:10060E0083120313B201A701A80143213030320235
:10061E00031C1E2B3208393C031C1E2B3208BF0054
:10062E00E12030303202A700A801031CA8033208D3
:10063E00233A031D252B0130A900262B0C2B080075
:10064E00392B803083120313BB004C2BC030BB0000
:10065E004C2B9430BB004C2BD430BB004C2B803039
:10066E00BB004C2B831203133B08013A0319282BB2
:10067E003B08023A03192D2B3B08033A0319302B82
:10068E003B08043A0319332B362B3C03F0003B088E
:10069E00F0077008BB007008C6001A203510BE01A6
:1006AE003E083D07840000080319652B3E083D07F0
:1006BE0084000008BF00E120BE0A572B3514080045
:1006CE008316031386120612061086100611861163
:1006DE0083128612061286110611861006100D2040
:1006EE000D200D208614061486160A2086120D2063
:1006FE0086160A2086120D2086160A2086120D20D6
:10070E00061086160A2086120D2086160A208612DC
:10071E008610861586160A2086120D20861106145E
:10072E0086160A208612061086160A2086120D20BC
:10073E0086160A208612061486160A2086120D20A8
:10074E00061086160A2086128615061586140614BD
:0C075E0086160A2086120D2035140800B3
:10076A0083120313A001A101A201A301A40183160C
:10077A0003178801890183128713881383160313C9
:10078A0086018312860183168710831287108316C7
:10079A00071183120711F03083168800F030831294
:1007AA008800831689018312890167230C30C600E9
:1007BA001A200130C6001A200130C0004530C1009D
:1007CA000630C20096200230C0005630C100063002
:1007DA00C20096200B30FB002630FC005D30FD0085
:1007EA00FD0BF52BFC0BF52BFB0BF52B000000008A
:1007FA000130C6001A200130C000CD30C1000630D9
:10080A00C20096200230C000DE30C1000630C200AD
:10081A0096200B30FB002630FC005D30FD00FD0BFE
:10082A00142CFC0B142CFB0B142C000000000130C0
:10083A00C6001A200130C0008930C1000530C2004C
:10084A0096200230C0007730C1000530C2009620E1
:10085A000B30FB002630FC005D30FD00FD0B332C15
:10086A00FC0B332CFB0B332C000000000130C600BC
:10087A001A200130C000BC30C1000630C2009620E8
:10088A000B30FB002630FC005D30FD00FD0B4B2CCD
:10089A00FC0B4B2CFB0B4B2C000000000130C6005C
:1008AA001A200130C0009A30C1000630C2009620DA
:1008BA000230C000AB30C1000630C20096200B30B7
:1008CA00FB002630FC005D30FD00FD0B6A2CFC0BA2
:1008DA006A2CFB0B6A2C000000000130C6001A20AB
:1008EA000130C000AC30C1000530C20096200B3088
:1008FA00FB002630FC005D30FD00FD0B822CFC0B5A
:10090A00822CFB0B822C000000000130C6001A204A
:10091A000130C000BD30C1000530C200962002304F
:10092A00C000CE30C1000530C20096200B30FB005B
:10093A002630FC005D30FD00FD0BA12CFC0BA12C28
:10094A00FB0BA12C000000000130C6001A20013068
:10095A00C0009B30C1000530C20096200B30FB005E
:10096A002630FC005D30FD00FD0BB92CFC0BB92CC8
:10097A00FB0BB92C000000000130C6001A20013020
:10098A00C000BD30C1000530C20096200230C00050
:10099A00CE30C1000530C20096200B30FB00263055
:1009AA00FC005D30FD00FD0BD82CFC0BD82CFB0B9A
:1009BA00D82C000000000130C6001A200130C00007
:1009CA001230C1000630C20096200B30FB002630E0
:1009DA00FC005D30FD00FD0BF02CFC0BF02CFB0B3A
:1009EA00F02C000000000130C6001A200130C000BF
:1009FA00BD30C1000530C20096200230C000CE30A2
:100A0A00C1000530C20096200B30FB002630FC00E6
:100A1A005D30FD00FD0B0F2DFC0B0F2DFB0B0F2D79
:100A2A00000000000130C6001A200130C000233047
:100A3A00C1000630C20096200230BB000130BC0063
:100A4A002230BD00272307230130C6001A200130B7
:100A5A00C0003430C1000630C20096200230BB000C
:100A6A000130BC002130BD002723BB220130C60063
:100A7A001A200130C000DF30C1000530C2009620C4
:100A8A000230BB000130BC002030BD0027239B226E
:100A9A000130C6001A200130C000F030C100053014
:100AAA00C20096200230BB000130BC002430BD00D9
:100ABA002723D9210130C6001A200130C000013095
:100ACA00C1000630C20096200230BB000130BC00D3
:100ADA002330BD002723DB220130C6001A20F9216A
:040AEA001A2D762D1E
:100AEE0020342034203453346534723476346F34E9
:100AFE006D346F3474346F347234203420342034B7
:040B0E00203400345B
:100B120020342034203443346F346E3474347234CD
:100B22006F346C342034443465342034203420341F
:040B32002034003437
:100B3600203420342034203420342034203420340F
:100B460020342034203420342034203420342034FF
:020B5600003469
:100B580020342034203420342034203420342034ED
:100B680020342034203420342034203420342034DD
:020B7800003447
:100B7A0059342034503472346534733469346F34E0
:100B8A006E346534203445346E34743465347234CA
:020B9A00003425
:100B9C00203420342034203420342034283423349E
:100BAC002934203420342034203420342034203490
:020BBC00003403
:100BBE002034203420342034203420342034333474
:100BCE0065347234203420342034203420342034E0
:020BDE000034E1
:100BE0002034203420342034203420342034343451
:100BF00074346F34203420342034203420342034B2
:020C00000034BE
:100C0200203420342034203420342034203435342D
:100C120074346F342034203420342034203420348F
:020C220000349C
:100C24002034203420342034203420342034203420
:100C34002034203420342034203420342034203410
:020C440000347A
:100C460020342034203420342034203420343134ED
:100C56006534723420342034203420342034203457
:020C6600003458
:100C680020342034203420342034203420343234CA
:100C780064346F3420342034203420342034203439
:020C8800003436
:100C8A0020342034203420345334533450345034F4
:100C9A005334453420342034203420342034203452
:020CAA00003414
:100CAC0049346E3467342E3420344A346F34733400
:100CBC0065342034523461346D346F3473342034E1
:020CCC000034F2
:100CCE002034203420342034203420342034203476
:100CDE002034203420342034203420342034203466
:020CEE000034D0
:100CF0002034203420342034203420342034203454
:100D00002034203420342034203420342034203443
:020D10000034AD
:100D12002034203420342034203420342034203431
:100D22002034203420342034203420342034203421
:020D320000348B
:100D340020342034533465346C3465346334633480
:100D440069346F346E3465342034353420342034BF
:020D5400003469
:100D560020342034533465346334753465346E344A
:100D660063346934613473342034203420342034BD
:020D7600003447
:100D780020342034203420342034203420342034CB
:100D880020342034203420342034203420342034BB
:020D9800003425
:100D9A0020342034203420342034203420342034A9
:100DAA002034203420342034203420342034203499
:020DBA00003403
:100DBC002034203420342034203420342034203487
:100DCC002034203420342034203420342034203477
:020DDC000034E1
:04400E00F42F000784
:00000001FF
