:02000000B52B1E
:0E000600213083120313FD00FD0B07280800B4
:06001400000000000800DE
:10001A000F3083120313FC004730FD00FD0B132839
:0A002A00FC0B132800000000080082
:1000340083120313C61B2028861121288615461B0C
:100044002528061126280615C61A2A2886102B28C4
:100054008614461A2F28061030280614351834281A
:1000640006163528061286160A208612C6193C285A
:1000740086113D2886154619412806114228061581
:10008400C618462886104728861446184B2806109A
:100094004C280614351850280616512806128616C0
:1000A4000A208612351C58280D20592803200800E0
:0E00B4008312031334088A0033088200080008
:1000C2007328803083120313C3008628C030C30014
:1000D20086289430C3008628D430C3008628803016
:1000E200C3008628831203134308013A03196228C6
:1000F2004308023A031967284308033A03196A2896
:100102004308043A03196D2870284403F000430899
:10011200F0077008C30035147008C6001A203510A5
:0A0122004508C6001A203514080035
:10012C0083120313B801103038020318B3284008A7
:10013C00C300380AC40038084107F000420803180D
:10014C00013EF1007008B3007108B4005A208A1106
:0C015C000A12C5006120B80A99280800AA
:1001680083120313B601B7013708003C031DBE28EC
:100178003608113C031CE0280130C0007330C10070
:100188000630C200962009140630FC003030FD000D
:10019800FD0BCC28FC0BCC28000009102F30FC00EC
:1001A800BF30FD00FD0BD628FC0BD6280000000050
:0A01B800B60A0319B70AB8280800B8
:1001C2008312031335103F08C6001A2035140800A5
:1001D20083120313AA01AB012B08003C031DF32871
:1001E2002A08143C031C15290130C0006230C100EA
:1001F2000630C200962009140330FC001230FD00C4
:10020200FD0B0129FC0B0129000009103230FC0012
:10021200DD30FD00FD0B0B29FC0B0B29000000005B
:0A022200AA0A0319AB0AED28080030
:10022C0083120313B901BA013A08003C031D2029BB
:10023C003908123C031C42290130C0005130C10066
:10024C000630C200962009140430FC00E430FD0096
:10025C00FD0B2E29FC0B2E29000009103130FC005F
:10026C000B30FD00FD0B3829FC0B38290000000079
:0A027C00B90A0319BA0A1A2908008A
:1002860083120313B201F03088000808F03A03190C
:10029600C829FE3088005B293130B2006B29323024
:1002A600B2006B293330B2006B294130B2006B29A2
:1002B6000808EE3A03194F290808DE3A03195229AD
:1002C6000808BE3A0319552908087E3A0319582921
:1002D600FD3088007A293430B2008A293530B200E0
:1002E6008A293630B2008A294230B2008A290808A3
:1002F600ED3A03196E290808DD3A03197129080831
:10030600BD3A0319742908087D3A03197729FB3089
:10031600880099293730B200A9293830B200A929B6
:100326003930B200A9294330B200A9290808EB3AAE
:1003360003198D290808DB3A031990290808BB3AE6
:100346000319932908087B3A03199629F730880080
:10035600B8292A30B200C8293030B200C829233063
:10036600B200C8294430B200C8290808E73A031980
:10037600AC290808D73A0319AF290808B73A031970
:10038600B2290808773A0319B529F0308800080819
:10039600F03A0319CF29CA298530FC007630FD00D2
:0C03A600FD0BD329FC0BD329000008003C
:1003B20083120313B201AC01AD014321303032028A
:1003C200031CF0293208393C031CF0293208BF0013
:1003D200E12030303202AC00AD01031CAD03320823
:1003E2002A3A031DF7290430A900F829DE2908005A
:1003F200831203132908053A031D9A2A062A162195
:100402001E2AE9201E2AB4201E2A00302806031DB7
:100412000C2A013027060319002A00302806031D82
:10042200142A023027060319022A00302806031D67
:100432001C2A033027060319042A252A16213D2ADD
:10044200E9203D2AB4203D2A00302606031D2B2A2E
:100452000130250603191F2A00302606031D332A00
:10046200023025060319212A00302606031D3B2AE5
:10047200033025060319232A442A16215C2AE9207F
:100482005C2AB4205C2A00302F06031D4A2A013060
:100492002E0603193E2A00302F06031D522A02306F
:1004A2002E060319402A00302F06031D5A2A033054
:1004B2002E060319422A632A16217B2AE9207B2A67
:1004C200B4207B2A00302D06031D692A01302C0638
:1004D20003195D2A00302D06031D712A02302C06F5
:1004E20003195F2A00302D06031D792A03302C06DA
:1004F2000319612A822A16219A2AE9209A2AB4200B
:100502009A2A00303106031D882A01303006031969
:100512007C2A00303106031D902A0230300603196E
:100522007E2A00303106031D982A03303006031953
:04053200802A080013
:1005360083120313B201AE01AF0143213030320200
:10054600031CB22A3208393C031CB22A3208BF0007
:10055600E12030303202AE00AF01031CAF03320897
:100566002A3A031DB92A0330A900BA2AA02A08008C
:1005760083120313B201A501A601432130303202D2
:10058600031CD22A3208393C031CD22A3208BF0087
:10059600E12030303202A500A601031CA603320872
:1005A6002A3A031DD92A0230A900DA2AC02A0800ED
:1005B60083120313B201B001B1014321303032027C
:1005C600031CF22A3208393C031CF22A3208BF0007
:1005D600E12030303202B000B101031CB103320811
:1005E6002A3A031DF92A0530A900FA2AE02A08004A
:1005F6005A208A110A128000840AB30A0319B40A1F
:08060600F003031DFB2A0800AC
:10060E0083120313B201A701A80143213030320235
:10061E00031C1E2B3208393C031C1E2B3208BF0054
:10062E00E12030303202A700A801031CA8033208D3
:10063E002A3A031D252B0130A900262B0C2B08006E
:10064E00392B803083120313BB004C2BC030BB0000
:10065E004C2B9430BB004C2BD430BB004C2B803039
:10066E00BB004C2B831203133B08013A0319282BB2
:10067E003B08023A03192D2B3B08033A0319302B82
:10068E003B08043A0319332B362B3C03F0003B088E
:10069E00F0077008BB007008C6001A203510BE01A6
:1006AE003E083D07840000080319652B3E083D07F0
:1006BE0084000008BF00E120BE0A572B3514080045
:1006CE008316031386120612061086100611861163
:1006DE0083128612061286110611861006100D2040
:1006EE000D200D208614061486160A2086120D2063
:1006FE0086160A2086120D2086160A2086120D20D6
:10070E00061086160A2086120D2086160A208612DC
:10071E008610861586160A2086120D20861106145E
:10072E0086160A208612061086160A2086120D20BC
:10073E0086160A208612061486160A2086120D20A8
:10074E00061086160A2086128615061586140614BD
:0C075E0086160A2086120D2035140800B3
:10076A0083120313A001A101A201A301A40183160C
:10077A0003178801890183128713881383160313C9
:10078A0086018312860183168710831287108316C7
:10079A00071183120711F03083168800F030831294
:1007AA008800831689018312890167230C30C600E9
:1007BA001A200130C6001A200130C0002F30C100B3
:1007CA000630C20096200230C0004030C100063018
:1007DA00C20096200A30FB002230FC00A130FD0046
:1007EA00FD0BF52BFC0BF52BFB0BF52B0130C60093
:1007FA001A200130C000B730C1000630C20096206E
:10080A000230C000C830C1000630C20096200A304B
:10081A00FB002230FC00A130FD00FD0B122CFC0B6A
:10082A00122CFB0B122C0130C6001A200130C0001A
:10083A007330C1000530C20096200230C00061301A
:10084A00C1000530C20096200A30FB002230FC00AD
:10085A00A130FD00FD0B2F2CFC0B2F2CFB0B2F2C9A
:10086A000130C6001A200130C000A630C10006308F
:10087A00C20096200A30FB002230FC00A130FD00A5
:10088A00FD0B452CFC0B452CFB0B452C0130C600FF
:10089A001A200130C0008430C1000630C200962000
:1008AA000230C0009530C1000630C20096200A30DE
:1008BA00FB002230FC00A130FD00FD0B622CFC0B7A
:1008CA00622CFB0B622C0130C6001A200130C000DA
:1008DA009630C1000530C20096200A30FB00223053
:1008EA00FC00A130FD00FD0B782CFC0B782CFB0BD7
:1008FA00782C0130C6001A200130C000A730C10090
:10090A000530C20096200230C000B830C100053060
:10091A00C20096200A30FB002230FC00A130FD0004
:10092A00FD0B952CFC0B952CFB0B952C0130C6006E
:10093A001A200130C0008530C1000530C20096205F
:10094A000A30FB002230FC00A130FD00FD0BAB2C6D
:10095A00FC0BAB2CFB0BAB2C0130C6001A20013070
:10096A00C000A730C1000530C20096200230C00086
:10097A00B830C1000530C20096200A30FB00223090
:10098A00FC00A130FD00FD0BC82CFC0BC82CFB0B96
:10099A00C82C0130C6001A200130C000FC30C1004A
:1009AA000530C20096200A30FB002230FC00A1303C
:1009BA00FD00FD0BDE2CFC0BDE2CFB0BDE2C0130CC
:1009CA00C6001A200130C000A730C1000530C2009D
:1009DA0096200230C000B830C1000530C20096200F
:1009EA000A30FB002230FC00A130FD00FD0BFB2C7D
:1009FA00FC0BFB2CFB0BFB2C0130C6001A20013030
:100A0A00C0000D30C1000630C20096200230BB0083
:100A1A000130BC002230BD00272307230130C60065
:100A2A001A200130C0001E30C1000630C2009620D4
:100A3A000230BB000130BC002130BD002723BB229D
:100A4A000130C6001A200130C000C930C10005308B
:100A5A00C20096200230BB000130BC002030BD002D
:100A6A0027239B220130C6001A200130C000DA3049
:100A7A00C1000530C20096200230BB000130BC0024
:100A8A002430BD002723D9210130C6001A200130A5
:100A9A00C000EB30C1000530C20096200230BB0016
:100AAA000130BC002330BD002723DB220130C60001
:080ABA001A20F921042D602D22
:100AC20020342034203453346534723476346F3415
:100AD2006D346F3474346F347234203420342034E3
:040AE2002034003488
:100AE60020342034203443346F346E3474347234FA
:100AF6006F346C342034443465342034203420344C
:040B06002034003463
:100B0A002034323420343D3420342D3439343034D6
:100B1A00203447347234613464346F34733420348B
:020B2A00003495
:100B2C002034313420343D342034203420343034DB
:100B3C00203447347234613464346F347334203469
:020B4C00003473
:100B4E0059342034503472346534733469346F340C
:100B5E006E346534203445346E34743465347234F6
:020B6E00003451
:100B700020342034203420342034203428342A34C3
:100B800029342034203420342034203420342034BC
:020B900000342F
:100B9200443469346734693474346534203433340A
:100BA2006534723420346734693472346F342034DB
:020BB20000340D
:100BB40044346934673469347434653420343434E7
:100BC40074346F3420346734693472346F342034AD
:020BD4000034EB
:100BD60044346934673469347434653420343534C4
:100BE60074346F3420346734693472346F3420348B
:020BF6000034C9
:100BF8002034333420343D3420342B3439343034E9
:100C0800203447347234613464346F34733420349C
:020C18000034A6
:100C1A004434693467346934743465342034313483
:100C2A006534723420346734693472346F34203452
:020C3A00003484
:100C3C004434693467346934743465342034323460
:100C4C0064346F3420346734693472346F34203434
:020C5C00003462
:100C5E002034203420342034533453345034503420
:100C6E00533445342034203420342034203420347E
:020C7E00003440
:100C800049346E3467342E3420344A346F3473342C
:100C900065342034523461346D346F34733420340D
:020CA00000341E
:100CA200203420342034203420343034203447346B
:100CB2007234613464346F34733420342034203419
:020CC2000034FC
:100CC4002034203420342D34393430342034473423
:100CD4007234613464346F347334203420342034F7
:020CE4000034DA
:100CE6002034203420342B34393430342034473403
:100CF6007234613464346F347334203420342034D5
:020D06000034B7
:100D080020342034533465346C34653463346334AC
:100D180069346F346E3465342034353420342034EB
:020D2800003495
:100D2A0020342034533465346334753465346E3476
:100D3A0063346934613473342034203420342034E9
:020D4A00003473
:100D4C00203420342034303434342F344E346F3447
:100D5C0076342F3432343034313436342034203439
:020D6C00003451
:100D6E0020344334613472346C346F347334203431
:100D7E0041346734753469346C34613472342034E0
:020D8E0000342F
:100D9000203420342034323431343534383436344D
:100DA0003034303434343934203420342034203456
:020DB00000340D
:04400E00F42F000784
:00000001FF
